{
  "contractName": "Swapper",
  "abi": [
    {
      "payable": true,
      "stateMutability": "payable",
      "type": "fallback"
    },
    {
      "constant": false,
      "inputs": [
        {
          "internalType": "contract TotlePrimary",
          "name": "primary",
          "type": "address"
        },
        {
          "components": [
            {
              "components": [
                {
                  "components": [
                    {
                      "internalType": "address",
                      "name": "sourceToken",
                      "type": "address"
                    },
                    {
                      "internalType": "address",
                      "name": "destinationToken",
                      "type": "address"
                    },
                    {
                      "internalType": "uint256",
                      "name": "amount",
                      "type": "uint256"
                    },
                    {
                      "internalType": "bool",
                      "name": "isSourceAmount",
                      "type": "bool"
                    },
                    {
                      "components": [
                        {
                          "internalType": "address payable",
                          "name": "exchangeHandler",
                          "type": "address"
                        },
                        {
                          "internalType": "bytes",
                          "name": "encodedPayload",
                          "type": "bytes"
                        }
                      ],
                      "internalType": "struct TotlePrimaryUtils.Order[]",
                      "name": "orders",
                      "type": "tuple[]"
                    }
                  ],
                  "internalType": "struct TotlePrimaryUtils.Trade[]",
                  "name": "trades",
                  "type": "tuple[]"
                },
                {
                  "internalType": "uint256",
                  "name": "minimumExchangeRate",
                  "type": "uint256"
                },
                {
                  "internalType": "uint256",
                  "name": "minimumDestinationAmount",
                  "type": "uint256"
                },
                {
                  "internalType": "uint256",
                  "name": "sourceAmount",
                  "type": "uint256"
                },
                {
                  "internalType": "uint256",
                  "name": "tradeToTakeFeeFrom",
                  "type": "uint256"
                },
                {
                  "internalType": "bool",
                  "name": "takeFeeFromSource",
                  "type": "bool"
                },
                {
                  "internalType": "address payable",
                  "name": "redirectAddress",
                  "type": "address"
                },
                {
                  "internalType": "bool",
                  "name": "required",
                  "type": "bool"
                }
              ],
              "internalType": "struct TotlePrimaryUtils.Swap[]",
              "name": "swaps",
              "type": "tuple[]"
            },
            {
              "internalType": "address payable",
              "name": "partnerContract",
              "type": "address"
            },
            {
              "internalType": "uint256",
              "name": "expirationBlock",
              "type": "uint256"
            },
            {
              "internalType": "bytes32",
              "name": "id",
              "type": "bytes32"
            },
            {
              "internalType": "uint256",
              "name": "maxGasPrice",
              "type": "uint256"
            },
            {
              "internalType": "uint8",
              "name": "v",
              "type": "uint8"
            },
            {
              "internalType": "bytes32",
              "name": "r",
              "type": "bytes32"
            },
            {
              "internalType": "bytes32",
              "name": "s",
              "type": "bytes32"
            }
          ],
          "internalType": "struct TotlePrimaryUtils.SwapCollection",
          "name": "swapCollection",
          "type": "tuple"
        }
      ],
      "name": "swap",
      "outputs": [],
      "payable": false,
      "stateMutability": "nonpayable",
      "type": "function"
    },
    {
      "constant": false,
      "inputs": [
        {
          "internalType": "address",
          "name": "token",
          "type": "address"
        },
        {
          "internalType": "address",
          "name": "spender",
          "type": "address"
        }
      ],
      "name": "approve",
      "outputs": [],
      "payable": false,
      "stateMutability": "nonpayable",
      "type": "function"
    },
    {
      "constant": true,
      "inputs": [
        {
          "internalType": "address",
          "name": "token",
          "type": "address"
        }
      ],
      "name": "getBalance",
      "outputs": [
        {
          "internalType": "uint256",
          "name": "",
          "type": "uint256"
        }
      ],
      "payable": false,
      "stateMutability": "view",
      "type": "function"
    },
    {
      "constant": false,
      "inputs": [
        {
          "internalType": "address payable",
          "name": "user",
          "type": "address"
        },
        {
          "internalType": "address",
          "name": "token",
          "type": "address"
        },
        {
          "internalType": "uint256",
          "name": "amount",
          "type": "uint256"
        }
      ],
      "name": "claim",
      "outputs": [],
      "payable": false,
      "stateMutability": "nonpayable",
      "type": "function"
    },
    {
      "constant": false,
      "inputs": [
        {
          "internalType": "address payable",
          "name": "user",
          "type": "address"
        }
      ],
      "name": "destroy",
      "outputs": [],
      "payable": false,
      "stateMutability": "nonpayable",
      "type": "function"
    }
  ],
  "bytecode": "0x608060405234801561001057600080fd5b50611484806100206000396000f3fe6080604052600436106100485760003560e01c806260c3531461004a578062f55d9d146100735780637e5465ba1461009c578063996cba68146100c5578063f8b2cb4f146100ee575b005b34801561005657600080fd5b50610071600480360361006c919081019061080c565b61012b565b005b34801561007f57600080fd5b5061009a60048036036100959190810190610758565b6101b2565b005b3480156100a857600080fd5b506100c360048036036100be91908101906107d0565b6101cb565b005b3480156100d157600080fd5b506100ec60048036036100e79190810190610781565b6101e3565b005b3480156100fa57600080fd5b506101156004803603610110919081019061072f565b6102b9565b6040516101229190610f76565b60405180910390f35b8173ffffffffffffffffffffffffffffffffffffffff16635f10dffc3073ffffffffffffffffffffffffffffffffffffffff1631836040518363ffffffff1660e01b815260040161017c9190610f54565b6000604051808303818588803b15801561019557600080fd5b505af11580156101a9573d6000803e3d6000fd5b50505050505050565b8073ffffffffffffffffffffffffffffffffffffffff16ff5b6101de82826101d9856102b9565b61039c565b505050565b60008111610226576040517f08c379a000000000000000000000000000000000000000000000000000000000815260040161021d90610f34565b60405180910390fd5b600073ffffffffffffffffffffffffffffffffffffffff168273ffffffffffffffffffffffffffffffffffffffff1614156102a7578273ffffffffffffffffffffffffffffffffffffffff166108fc829081150290604051600060405180830381858888f193505050501580156102a1573d6000803e3d6000fd5b506102b4565b6102b28284836104eb565b505b505050565b60008073ffffffffffffffffffffffffffffffffffffffff168273ffffffffffffffffffffffffffffffffffffffff161461037c578173ffffffffffffffffffffffffffffffffffffffff166370a08231306040518263ffffffff1660e01b81526004016103279190610eb0565b60206040518083038186803b15801561033f57600080fd5b505afa158015610353573d6000803e3d6000fd5b505050506040513d601f19601f820116820180604052506103779190810190610860565b610395565b3073ffffffffffffffffffffffffffffffffffffffff16315b9050919050565b60008373ffffffffffffffffffffffffffffffffffffffff1683836040516024016103c8929190610ecb565b6040516020818303038152906040527f095ea7b3000000000000000000000000000000000000000000000000000000007bffffffffffffffffffffffffffffffffffffffffffffffffffffffff19166020820180517bffffffffffffffffffffffffffffffffffffffffffffffffffffffff83818316178352505050506040516104529190610e99565b6000604051808303816000865af19150503d806000811461048f576040519150601f19603f3d011682016040523d82523d6000602084013e610494565b606091505b505080915050806104da576040517f08c379a00000000000000000000000000000000000000000000000000000000081526004016104d190610f14565b60405180910390fd5b6104e261063a565b90509392505050565b60008373ffffffffffffffffffffffffffffffffffffffff168383604051602401610517929190610ecb565b6040516020818303038152906040527fa9059cbb000000000000000000000000000000000000000000000000000000007bffffffffffffffffffffffffffffffffffffffffffffffffffffffff19166020820180517bffffffffffffffffffffffffffffffffffffffffffffffffffffffff83818316178352505050506040516105a19190610e99565b6000604051808303816000865af19150503d80600081146105de576040519150601f19603f3d011682016040523d82523d6000602084013e6105e3565b606091505b50508091505080610629576040517f08c379a000000000000000000000000000000000000000000000000000000000815260040161062090610ef4565b60405180910390fd5b61063161063a565b90509392505050565b60003d60008114610652576020811461065b57600080fd5b60019150610667565b60206000803e60005191505b5090565b60008135905061067a816113a0565b92915050565b60008135905061068f816113b7565b92915050565b6000813590506106a4816113ce565b92915050565b6000813590506106b9816113e5565b92915050565b6000813590506106ce816113fc565b92915050565b600061010082840312156106e757600080fd5b81905092915050565b6000813590506106ff81611413565b92915050565b60008151905061071481611413565b92915050565b6000813590506107298161142a565b92915050565b60006020828403121561074157600080fd5b600061074f8482850161066b565b91505092915050565b60006020828403121561076a57600080fd5b600061077884828501610680565b91505092915050565b60008060006060848603121561079657600080fd5b60006107a486828701610680565b93505060206107b58682870161066b565b92505060406107c6868287016106f0565b9150509250925092565b600080604083850312156107e357600080fd5b60006107f18582860161066b565b92505060206108028582860161066b565b9150509250929050565b6000806040838503121561081f57600080fd5b600061082d858286016106bf565b925050602083013567ffffffffffffffff81111561084a57600080fd5b610856858286016106d4565b9150509250929050565b60006020828403121561087257600080fd5b600061088084828501610705565b91505092915050565b60006108958383610b99565b905092915050565b60006108a98383610cda565b905092915050565b60006108bd8383610dcc565b905092915050565b6108ce81611317565b82525050565b6108dd816112a6565b82525050565b6108ec81611294565b82525050565b6108fb81611294565b82525050565b600061090d8385610fe1565b93508360208402850161091f84610f91565b8060005b8781101561096357848403895261093a82846111f9565b6109448582610889565b945061094f83610fba565b925060208a01995050600181019050610923565b50829750879450505050509392505050565b60006109818385610ff2565b93508360208402850161099384610f9b565b8060005b878110156109d75784840389526109ae828461121d565b6109b8858261089d565b94506109c383610fc7565b925060208a01995050600181019050610997565b50829750879450505050509392505050565b60006109f58385611003565b935083602084028501610a0784610fa5565b8060005b87811015610a4b578484038952610a228284611242565b610a2c85826108b1565b9450610a3783610fd4565b925060208a01995050600181019050610a0b565b50829750879450505050509392505050565b610a66816112b8565b82525050565b610a75816112c4565b82525050565b6000610a878385611014565b9350610a9483858461134d565b610a9d8361138f565b840190509392505050565b6000610ab382610faf565b610abd8185611025565b9350610acd81856020860161135c565b80840191505092915050565b6000610ae6600f83611030565b91507f5472616e73666572206661696c656400000000000000000000000000000000006000830152602082019050919050565b6000610b26600e83611030565b91507f417070726f7665206661696c65640000000000000000000000000000000000006000830152602082019050919050565b6000610b66601d83611030565b91507f436c61696d20616d6f756e74206d75737420626520706f7369746976650000006000830152602082019050919050565b600060408301610bac6000840184611058565b610bb960008601826108d4565b50610bc760208401846111a2565b8583036020870152610bda838284610a7b565b925050508091505092915050565b60006101008301610bfc60008401846110c6565b8583036000870152610c0f838284610975565b92505050610c206020840184611058565b610c2d60208601826108d4565b50610c3b6040840184611266565b610c486040860182610e6c565b50610c56606084018461118b565b610c636060860182610a6c565b50610c716080840184611266565b610c7e6080860182610e6c565b50610c8c60a084018461127d565b610c9960a0860182610e8a565b50610ca760c084018461118b565b610cb460c0860182610a6c565b50610cc260e084018461118b565b610ccf60e0860182610a6c565b508091505092915050565b60006101008301610cee600084018461111d565b8583036000870152610d018382846109e9565b92505050610d126020840184611266565b610d1f6020860182610e6c565b50610d2d6040840184611266565b610d3a6040860182610e6c565b50610d486060840184611266565b610d556060860182610e6c565b50610d636080840184611266565b610d706080860182610e6c565b50610d7e60a0840184611174565b610d8b60a0860182610a5d565b50610d9960c0840184611058565b610da660c08601826108d4565b50610db460e0840184611174565b610dc160e0860182610a5d565b508091505092915050565b600060a08301610ddf6000840184611041565b610dec60008601826108e3565b50610dfa6020840184611041565b610e0760208601826108e3565b50610e156040840184611266565b610e226040860182610e6c565b50610e306060840184611174565b610e3d6060860182610a5d565b50610e4b608084018461106f565b8583036080870152610e5e838284610901565b925050508091505092915050565b610e7581611300565b82525050565b610e8481611300565b82525050565b610e938161130a565b82525050565b6000610ea58284610aa8565b915081905092915050565b6000602082019050610ec560008301846108c5565b92915050565b6000604082019050610ee060008301856108f2565b610eed6020830184610e7b565b9392505050565b60006020820190508181036000830152610f0d81610ad9565b9050919050565b60006020820190508181036000830152610f2d81610b19565b9050919050565b60006020820190508181036000830152610f4d81610b59565b9050919050565b60006020820190508181036000830152610f6e8184610be8565b905092915050565b6000602082019050610f8b6000830184610e7b565b92915050565b6000819050919050565b6000819050919050565b6000819050919050565b600081519050919050565b6000602082019050919050565b6000602082019050919050565b6000602082019050919050565b600082825260208201905092915050565b600082825260208201905092915050565b600082825260208201905092915050565b600082825260208201905092915050565b600081905092915050565b600082825260208201905092915050565b6000611050602084018461066b565b905092915050565b60006110676020840184610680565b905092915050565b6000808335600160200384360303811261108857600080fd5b83810192508235915060208301925067ffffffffffffffff8211156110ac57600080fd5b6020820236038413156110be57600080fd5b509250929050565b600080833560016020038436030381126110df57600080fd5b83810192508235915060208301925067ffffffffffffffff82111561110357600080fd5b60208202360384131561111557600080fd5b509250929050565b6000808335600160200384360303811261113657600080fd5b83810192508235915060208301925067ffffffffffffffff82111561115a57600080fd5b60208202360384131561116c57600080fd5b509250929050565b60006111836020840184610695565b905092915050565b600061119a60208401846106aa565b905092915050565b600080833560016020038436030381126111bb57600080fd5b83810192508235915060208301925067ffffffffffffffff8211156111df57600080fd5b6001820236038413156111f157600080fd5b509250929050565b60008235600160400383360303811261121157600080fd5b82810191505092915050565b6000823560016101000383360303811261123657600080fd5b82810191505092915050565b60008235600160a00383360303811261125a57600080fd5b82810191505092915050565b600061127560208401846106f0565b905092915050565b600061128c602084018461071a565b905092915050565b600061129f826112e0565b9050919050565b60006112b1826112e0565b9050919050565b60008115159050919050565b6000819050919050565b60006112d982611294565b9050919050565b600073ffffffffffffffffffffffffffffffffffffffff82169050919050565b6000819050919050565b600060ff82169050919050565b600061132282611329565b9050919050565b60006113348261133b565b9050919050565b6000611346826112e0565b9050919050565b82818337600083830152505050565b60005b8381101561137a57808201518184015260208101905061135f565b83811115611389576000848401525b50505050565b6000601f19601f8301169050919050565b6113a981611294565b81146113b457600080fd5b50565b6113c0816112a6565b81146113cb57600080fd5b50565b6113d7816112b8565b81146113e257600080fd5b50565b6113ee816112c4565b81146113f957600080fd5b50565b611405816112ce565b811461141057600080fd5b50565b61141c81611300565b811461142757600080fd5b50565b6114338161130a565b811461143e57600080fd5b5056fea365627a7a72315820e0fc6f9d3a2a0010da1bbccd37c9b768109e259281da1742e28f0ace228186e46c6578706572696d656e74616cf564736f6c63430005100040",
  "source": "pragma solidity 0.5.16;\npragma experimental ABIEncoderV2;\n\nimport \"./SwapperFactory.sol\";\nimport \"./lib/TotlePrimary.sol\";\nimport \"./lib/ERC20.sol\";\n\ncontract Swapper {\n  function swap(\n    TotlePrimary primary,\n    TotlePrimaryUtils.SwapCollection calldata swapCollection\n  ) external {\n    primary.performSwapCollection.value(address(this).balance)(swapCollection);\n  }\n\n  function approve(address token, address spender) public {\n    safeApprove(token, spender, getBalance(token));\n  }\n\n  function safeApprove(address _tokenAddress, address _spender, uint256 _value) internal returns (bool success) {\n    (success,) = _tokenAddress.call(abi.encodeWithSignature(\"approve(address,uint256)\", _spender, _value));\n    require(success, \"Approve failed\");\n\n    return fetchReturnData();\n  }\n\n  function fetchReturnData() internal pure returns (bool success) {\n    assembly {\n      switch returndatasize()\n      case 0 {\n        success := 1\n      }\n      case 32 {\n        returndatacopy(0, 0, 32)\n        success := mload(0)\n      }\n      default {\n        revert(0, 0)\n      }\n    }\n  }\n\n  function getBalance(address token) public view returns (uint256) {\n    return token == address(0)\n      ? address(this).balance\n      : ERC20(token).balanceOf(address(this));\n  }\n\n  function claim(address payable user, address token, uint amount) public {\n    require(amount > 0, 'Claim amount must be positive');\n\n    if (token == address(0)) {\n      user.transfer(amount);\n    } else {\n      safeTransfer(token, user, amount);\n    }\n  }\n\n  function safeTransfer(address _tokenAddress, address _to, uint256 _value) internal returns (bool success) {\n    (success,) = _tokenAddress.call(abi.encodeWithSignature(\"transfer(address,uint256)\", _to, _value));\n    require(success, \"Transfer failed\");\n\n    return fetchReturnData();\n  }\n\n  function destroy(address payable user) external {\n    selfdestruct(user);\n  }\n\n  function() external payable {\n\n  }\n}",
  "sourcePath": "/home/passa/Documents/projects/Transak/transakWebAppBackend/lib/cryptoUtil/crypto-swapper/ethereum/contracts/Swapper.sol",
  "compiler": {
    "name": "solc",
    "version": "0.5.16+commit.9c3226ce.Emscripten.clang"
  },
  "schemaVersion": "3.0.23",
  "updatedAt": "2020-05-01T15:25:07.684Z",
  "networkType": "ethereum",
  "devdoc": {
    "methods": {}
  },
  "userdoc": {
    "methods": {}
  }
}