{
  "contractName": "SwapperFactory",
  "abi": [
    {
      "inputs": [
        {
          "internalType": "address",
          "name": "_swapperLibrary",
          "type": "address"
        }
      ],
      "payable": false,
      "stateMutability": "nonpayable",
      "type": "constructor"
    },
    {
      "anonymous": false,
      "inputs": [
        {
          "indexed": true,
          "internalType": "address",
          "name": "user",
          "type": "address"
        }
      ],
      "name": "SwapPerformed",
      "type": "event"
    },
    {
      "constant": true,
      "inputs": [],
      "name": "admin",
      "outputs": [
        {
          "internalType": "address",
          "name": "",
          "type": "address"
        }
      ],
      "payable": false,
      "stateMutability": "view",
      "type": "function"
    },
    {
      "constant": true,
      "inputs": [],
      "name": "swapperLibrary",
      "outputs": [
        {
          "internalType": "address",
          "name": "",
          "type": "address"
        }
      ],
      "payable": false,
      "stateMutability": "view",
      "type": "function"
    },
    {
      "constant": false,
      "inputs": [
        {
          "internalType": "address payable",
          "name": "user",
          "type": "address"
        },
        {
          "internalType": "address",
          "name": "srcToken",
          "type": "address"
        },
        {
          "internalType": "address",
          "name": "dstToken",
          "type": "address"
        },
        {
          "internalType": "string",
          "name": "uniqueId",
          "type": "string"
        },
        {
          "internalType": "contract TotlePrimary",
          "name": "primary",
          "type": "address"
        },
        {
          "components": [
            {
              "components": [
                {
                  "components": [
                    {
                      "internalType": "address",
                      "name": "sourceToken",
                      "type": "address"
                    },
                    {
                      "internalType": "address",
                      "name": "destinationToken",
                      "type": "address"
                    },
                    {
                      "internalType": "uint256",
                      "name": "amount",
                      "type": "uint256"
                    },
                    {
                      "internalType": "bool",
                      "name": "isSourceAmount",
                      "type": "bool"
                    },
                    {
                      "components": [
                        {
                          "internalType": "address payable",
                          "name": "exchangeHandler",
                          "type": "address"
                        },
                        {
                          "internalType": "bytes",
                          "name": "encodedPayload",
                          "type": "bytes"
                        }
                      ],
                      "internalType": "struct TotlePrimaryUtils.Order[]",
                      "name": "orders",
                      "type": "tuple[]"
                    }
                  ],
                  "internalType": "struct TotlePrimaryUtils.Trade[]",
                  "name": "trades",
                  "type": "tuple[]"
                },
                {
                  "internalType": "uint256",
                  "name": "minimumExchangeRate",
                  "type": "uint256"
                },
                {
                  "internalType": "uint256",
                  "name": "minimumDestinationAmount",
                  "type": "uint256"
                },
                {
                  "internalType": "uint256",
                  "name": "sourceAmount",
                  "type": "uint256"
                },
                {
                  "internalType": "uint256",
                  "name": "tradeToTakeFeeFrom",
                  "type": "uint256"
                },
                {
                  "internalType": "bool",
                  "name": "takeFeeFromSource",
                  "type": "bool"
                },
                {
                  "internalType": "address payable",
                  "name": "redirectAddress",
                  "type": "address"
                },
                {
                  "internalType": "bool",
                  "name": "required",
                  "type": "bool"
                }
              ],
              "internalType": "struct TotlePrimaryUtils.Swap[]",
              "name": "swaps",
              "type": "tuple[]"
            },
            {
              "internalType": "address payable",
              "name": "partnerContract",
              "type": "address"
            },
            {
              "internalType": "uint256",
              "name": "expirationBlock",
              "type": "uint256"
            },
            {
              "internalType": "bytes32",
              "name": "id",
              "type": "bytes32"
            },
            {
              "internalType": "uint256",
              "name": "maxGasPrice",
              "type": "uint256"
            },
            {
              "internalType": "uint8",
              "name": "v",
              "type": "uint8"
            },
            {
              "internalType": "bytes32",
              "name": "r",
              "type": "bytes32"
            },
            {
              "internalType": "bytes32",
              "name": "s",
              "type": "bytes32"
            }
          ],
          "internalType": "struct TotlePrimaryUtils.SwapCollection",
          "name": "swapCollection",
          "type": "tuple"
        }
      ],
      "name": "performSwap",
      "outputs": [],
      "payable": false,
      "stateMutability": "nonpayable",
      "type": "function"
    },
    {
      "constant": false,
      "inputs": [
        {
          "internalType": "address payable",
          "name": "user",
          "type": "address"
        },
        {
          "internalType": "address",
          "name": "srcToken",
          "type": "address"
        },
        {
          "internalType": "address",
          "name": "dstToken",
          "type": "address"
        },
        {
          "internalType": "uint256",
          "name": "commissionAmount",
          "type": "uint256"
        },
        {
          "internalType": "address payable",
          "name": "commissionDestination",
          "type": "address"
        },
        {
          "internalType": "string",
          "name": "uniqueId",
          "type": "string"
        },
        {
          "internalType": "contract TotlePrimary",
          "name": "primary",
          "type": "address"
        },
        {
          "components": [
            {
              "components": [
                {
                  "components": [
                    {
                      "internalType": "address",
                      "name": "sourceToken",
                      "type": "address"
                    },
                    {
                      "internalType": "address",
                      "name": "destinationToken",
                      "type": "address"
                    },
                    {
                      "internalType": "uint256",
                      "name": "amount",
                      "type": "uint256"
                    },
                    {
                      "internalType": "bool",
                      "name": "isSourceAmount",
                      "type": "bool"
                    },
                    {
                      "components": [
                        {
                          "internalType": "address payable",
                          "name": "exchangeHandler",
                          "type": "address"
                        },
                        {
                          "internalType": "bytes",
                          "name": "encodedPayload",
                          "type": "bytes"
                        }
                      ],
                      "internalType": "struct TotlePrimaryUtils.Order[]",
                      "name": "orders",
                      "type": "tuple[]"
                    }
                  ],
                  "internalType": "struct TotlePrimaryUtils.Trade[]",
                  "name": "trades",
                  "type": "tuple[]"
                },
                {
                  "internalType": "uint256",
                  "name": "minimumExchangeRate",
                  "type": "uint256"
                },
                {
                  "internalType": "uint256",
                  "name": "minimumDestinationAmount",
                  "type": "uint256"
                },
                {
                  "internalType": "uint256",
                  "name": "sourceAmount",
                  "type": "uint256"
                },
                {
                  "internalType": "uint256",
                  "name": "tradeToTakeFeeFrom",
                  "type": "uint256"
                },
                {
                  "internalType": "bool",
                  "name": "takeFeeFromSource",
                  "type": "bool"
                },
                {
                  "internalType": "address payable",
                  "name": "redirectAddress",
                  "type": "address"
                },
                {
                  "internalType": "bool",
                  "name": "required",
                  "type": "bool"
                }
              ],
              "internalType": "struct TotlePrimaryUtils.Swap[]",
              "name": "swaps",
              "type": "tuple[]"
            },
            {
              "internalType": "address payable",
              "name": "partnerContract",
              "type": "address"
            },
            {
              "internalType": "uint256",
              "name": "expirationBlock",
              "type": "uint256"
            },
            {
              "internalType": "bytes32",
              "name": "id",
              "type": "bytes32"
            },
            {
              "internalType": "uint256",
              "name": "maxGasPrice",
              "type": "uint256"
            },
            {
              "internalType": "uint8",
              "name": "v",
              "type": "uint8"
            },
            {
              "internalType": "bytes32",
              "name": "r",
              "type": "bytes32"
            },
            {
              "internalType": "bytes32",
              "name": "s",
              "type": "bytes32"
            }
          ],
          "internalType": "struct TotlePrimaryUtils.SwapCollection",
          "name": "swapCollection",
          "type": "tuple"
        }
      ],
      "name": "performSwapWithCommission",
      "outputs": [],
      "payable": false,
      "stateMutability": "nonpayable",
      "type": "function"
    },
    {
      "constant": false,
      "inputs": [
        {
          "internalType": "address payable",
          "name": "user",
          "type": "address"
        },
        {
          "internalType": "address",
          "name": "srcToken",
          "type": "address"
        },
        {
          "internalType": "address",
          "name": "dstToken",
          "type": "address"
        },
        {
          "internalType": "string",
          "name": "uniqueId",
          "type": "string"
        },
        {
          "internalType": "address",
          "name": "token",
          "type": "address"
        }
      ],
      "name": "claimBalance",
      "outputs": [],
      "payable": false,
      "stateMutability": "nonpayable",
      "type": "function"
    },
    {
      "constant": true,
      "inputs": [],
      "name": "getCloneBytecode",
      "outputs": [
        {
          "internalType": "bytes",
          "name": "",
          "type": "bytes"
        }
      ],
      "payable": false,
      "stateMutability": "view",
      "type": "function"
    },
    {
      "constant": true,
      "inputs": [
        {
          "internalType": "address",
          "name": "_address",
          "type": "address"
        }
      ],
      "name": "isContract",
      "outputs": [
        {
          "internalType": "bool",
          "name": "",
          "type": "bool"
        }
      ],
      "payable": false,
      "stateMutability": "view",
      "type": "function"
    },
    {
      "constant": true,
      "inputs": [
        {
          "internalType": "address",
          "name": "user",
          "type": "address"
        },
        {
          "internalType": "address",
          "name": "srcToken",
          "type": "address"
        },
        {
          "internalType": "address",
          "name": "dstToken",
          "type": "address"
        },
        {
          "internalType": "string",
          "name": "uniqueId",
          "type": "string"
        }
      ],
      "name": "computeCloneSalt",
      "outputs": [
        {
          "internalType": "bytes32",
          "name": "",
          "type": "bytes32"
        }
      ],
      "payable": false,
      "stateMutability": "pure",
      "type": "function"
    },
    {
      "constant": true,
      "inputs": [
        {
          "internalType": "bytes32",
          "name": "salt",
          "type": "bytes32"
        }
      ],
      "name": "computeAddress",
      "outputs": [
        {
          "internalType": "address payable",
          "name": "",
          "type": "address"
        }
      ],
      "payable": false,
      "stateMutability": "view",
      "type": "function"
    }
  ],
  "bytecode": "0x60806040523480156200001157600080fd5b506040516200269c3803806200269c8339818101604052620000379190810190620000d6565b336000806101000a81548173ffffffffffffffffffffffffffffffffffffffff021916908373ffffffffffffffffffffffffffffffffffffffff16021790555080600160006101000a81548173ffffffffffffffffffffffffffffffffffffffff021916908373ffffffffffffffffffffffffffffffffffffffff1602179055505062000150565b600081519050620000d08162000136565b92915050565b600060208284031215620000e957600080fd5b6000620000f984828501620000bf565b91505092915050565b60006200010f8262000116565b9050919050565b600073ffffffffffffffffffffffffffffffffffffffff82169050919050565b620001418162000102565b81146200014d57600080fd5b50565b61253c80620001606000396000f3fe608060405234801561001057600080fd5b50600436106100935760003560e01c80637fde56da116100665780637fde56da14610132578063be27ad5f14610162578063c288b3871461017e578063f851a4401461019a578063f8d56e8f146101b857610093565b8063162790551461009857806337a1c16d146100c857806358977dd5146100e65780637e0fc6f514610102575b600080fd5b6100b260048036036100ad919081019061138e565b6101d6565b6040516100bf9190611f7e565b60405180910390f35b6100d06101ef565b6040516100dd9190611ee8565b60405180910390f35b61010060048036036100fb91908101906114ff565b610215565b005b61011c600480360361011791908101906115e1565b61091f565b6040516101299190611f99565b60405180910390f35b61014c6004803603610147919081019061165c565b610958565b6040516101599190611f03565b60405180910390f35b61017c60048036036101779190810190611446565b6109ac565b005b610198600480360361019391908101906113b7565b610a54565b005b6101a2610c5c565b6040516101af9190611ee8565b60405180910390f35b6101c0610c81565b6040516101cd9190611fb4565b60405180910390f35b600080823b905060008163ffffffff1611915050919050565b600160009054906101000a900473ffffffffffffffffffffffffffffffffffffffff1681565b6000809054906101000a900473ffffffffffffffffffffffffffffffffffffffff1673ffffffffffffffffffffffffffffffffffffffff163373ffffffffffffffffffffffffffffffffffffffff16146102a4576040517f08c379a000000000000000000000000000000000000000000000000000000000815260040161029b90612026565b60405180910390fd5b6001816000015151146102ec576040517f08c379a00000000000000000000000000000000000000000000000000000000081526004016102e3906120c6565b60405180910390fd5b8673ffffffffffffffffffffffffffffffffffffffff16816000015160008151811061031457fe5b60200260200101516000015160008151811061032c57fe5b60200260200101516000015173ffffffffffffffffffffffffffffffffffffffff161461038e576040517f08c379a0000000000000000000000000000000000000000000000000000000008152600401610385906120a6565b60405180910390fd5b8773ffffffffffffffffffffffffffffffffffffffff1681600001516000815181106103b657fe5b602002602001015160c0015173ffffffffffffffffffffffffffffffffffffffff1614610418576040517f08c379a000000000000000000000000000000000000000000000000000000000815260040161040f90612006565b60405180910390fd5b600061042689898987610d40565b905060008173ffffffffffffffffffffffffffffffffffffffff1663f8b2cb4f8a6040518263ffffffff1660e01b81526004016104639190611ee8565b60206040518083038186803b15801561047b57600080fd5b505afa15801561048f573d6000803e3d6000fd5b505050506040513d601f19601f820116820180604052506104b39190810190611685565b116104f3576040517f08c379a00000000000000000000000000000000000000000000000000000000081526004016104ea90612086565b60405180910390fd5b6000861115610658578073ffffffffffffffffffffffffffffffffffffffff1663f8b2cb4f896040518263ffffffff1660e01b81526004016105359190611ee8565b60206040518083038186803b15801561054d57600080fd5b505afa158015610561573d6000803e3d6000fd5b505050506040513d601f19601f820116820180604052506105859190810190611685565b86836000015160008151811061059757fe5b60200260200101516060015101146105e4576040517f08c379a00000000000000000000000000000000000000000000000000000000081526004016105db90612046565b60405180910390fd5b8073ffffffffffffffffffffffffffffffffffffffff1663996cba68868a896040518463ffffffff1660e01b815260040161062193929190611f1e565b600060405180830381600087803b15801561063b57600080fd5b505af115801561064f573d6000803e3d6000fd5b5050505061073f565b8073ffffffffffffffffffffffffffffffffffffffff1663f8b2cb4f896040518263ffffffff1660e01b81526004016106919190611ee8565b60206040518083038186803b1580156106a957600080fd5b505afa1580156106bd573d6000803e3d6000fd5b505050506040513d601f19601f820116820180604052506106e19190810190611685565b82600001516000815181106106f257fe5b6020026020010151606001511461073e576040517f08c379a000000000000000000000000000000000000000000000000000000000815260040161073590612066565b60405180910390fd5b5b600073ffffffffffffffffffffffffffffffffffffffff168873ffffffffffffffffffffffffffffffffffffffff16146107fb5760007374758acfce059f503a7e6b0fc2c8737600f9f2c490508173ffffffffffffffffffffffffffffffffffffffff16637e5465ba8a836040518363ffffffff1660e01b81526004016107c7929190611f55565b600060405180830381600087803b1580156107e157600080fd5b505af11580156107f5573d6000803e3d6000fd5b50505050505b8073ffffffffffffffffffffffffffffffffffffffff166260c35384846040518363ffffffff1660e01b8152600401610835929190611fd6565b600060405180830381600087803b15801561084f57600080fd5b505af1158015610863573d6000803e3d6000fd5b505050508073ffffffffffffffffffffffffffffffffffffffff1662f55d9d8a6040518263ffffffff1660e01b815260040161089f9190611f03565b600060405180830381600087803b1580156108b957600080fd5b505af11580156108cd573d6000803e3d6000fd5b505050508873ffffffffffffffffffffffffffffffffffffffff167f1eefc1ab967bf11b33d29f7d6035ec1781e7dcf16b6dc7e06a1b0b2c7a117b9860405160405180910390a2505050505050505050565b6000848484846040516020016109389493929190611e50565b604051602081830303815290604052805190602001209050949350505050565b60008060ff60f81b308461096a610c81565b805190602001206040516020016109849493929190611e9a565b604051602081830303815290604052805190602001209050606081901b60601c915050919050565b6000809054906101000a900473ffffffffffffffffffffffffffffffffffffffff1673ffffffffffffffffffffffffffffffffffffffff163373ffffffffffffffffffffffffffffffffffffffff1614610a3b576040517f08c379a0000000000000000000000000000000000000000000000000000000008152600401610a3290612026565b60405180910390fd5b610a4c868686600080888888610215565b505050505050565b6000809054906101000a900473ffffffffffffffffffffffffffffffffffffffff1673ffffffffffffffffffffffffffffffffffffffff163373ffffffffffffffffffffffffffffffffffffffff1614610ae3576040517f08c379a0000000000000000000000000000000000000000000000000000000008152600401610ada90612026565b60405180910390fd5b6000610af186868686610d40565b90508073ffffffffffffffffffffffffffffffffffffffff1663996cba6887848473ffffffffffffffffffffffffffffffffffffffff1663f8b2cb4f876040518263ffffffff1660e01b8152600401610b4a9190611ee8565b60206040518083038186803b158015610b6257600080fd5b505afa158015610b76573d6000803e3d6000fd5b505050506040513d601f19601f82011682018060405250610b9a9190810190611685565b6040518463ffffffff1660e01b8152600401610bb893929190611f1e565b600060405180830381600087803b158015610bd257600080fd5b505af1158015610be6573d6000803e3d6000fd5b505050508073ffffffffffffffffffffffffffffffffffffffff1662f55d9d876040518263ffffffff1660e01b8152600401610c229190611f03565b600060405180830381600087803b158015610c3c57600080fd5b505af1158015610c50573d6000803e3d6000fd5b50505050505050505050565b6000809054906101000a900473ffffffffffffffffffffffffffffffffffffffff1681565b60606000600160009054906101000a900473ffffffffffffffffffffffffffffffffffffffff1660601b9050606060376040519080825280601f01601f191660200182016040528015610ce35781602001600182028038833980820191505090505b5090507f3d602d80600a3d3981f3363d3d373d3d3d363d7300000000000000000000000060208201528160348201527f5af43d82803e903d91602b57fd5bf300000000000000000000000000000000006048820152809250505090565b60008060009054906101000a900473ffffffffffffffffffffffffffffffffffffffff1673ffffffffffffffffffffffffffffffffffffffff163373ffffffffffffffffffffffffffffffffffffffff1614610dd1576040517f08c379a0000000000000000000000000000000000000000000000000000000008152600401610dc890612026565b60405180910390fd5b6000610ddf8686868661091f565b90506060610deb610c81565b90506000610df883610958565b9050610e03816101d6565b610e1457828251602084016000f590505b809350505050949350505050565b600081359050610e3181612458565b92915050565b600081359050610e468161246f565b92915050565b600082601f830112610e5d57600080fd5b8135610e70610e6b82612113565b6120e6565b9150818183526020840193506020810190508360005b83811015610eb65781358601610e9c888261108f565b845260208401935060208301925050600181019050610e86565b5050505092915050565b600082601f830112610ed157600080fd5b8135610ee4610edf8261213b565b6120e6565b9150818183526020840193506020810190508360005b83811015610f2a5781358601610f1088826111d1565b845260208401935060208301925050600181019050610efa565b5050505092915050565b600082601f830112610f4557600080fd5b8135610f58610f5382612163565b6120e6565b9150818183526020840193506020810190508360005b83811015610f9e5781358601610f8488826112af565b845260208401935060208301925050600181019050610f6e565b5050505092915050565b600081359050610fb781612486565b92915050565b600081359050610fcc8161249d565b92915050565b600082601f830112610fe357600080fd5b8135610ff6610ff18261218b565b6120e6565b9150808252602083016020830185838301111561101257600080fd5b61101d8382846123c0565b50505092915050565b600081359050611035816124b4565b92915050565b600082601f83011261104c57600080fd5b813561105f61105a826121b7565b6120e6565b9150808252602083016020830185838301111561107b57600080fd5b6110868382846123c0565b50505092915050565b6000604082840312156110a157600080fd5b6110ab60406120e6565b905060006110bb84828501610e37565b600083015250602082013567ffffffffffffffff8111156110db57600080fd5b6110e784828501610fd2565b60208301525092915050565b6000610100828403121561110657600080fd5b6111116101006120e6565b9050600082013567ffffffffffffffff81111561112d57600080fd5b61113984828501610ec0565b600083015250602061114d84828501610e37565b60208301525060406111618482850161134f565b604083015250606061117584828501610fbd565b60608301525060806111898482850161134f565b60808301525060a061119d84828501611379565b60a08301525060c06111b184828501610fbd565b60c08301525060e06111c584828501610fbd565b60e08301525092915050565b600061010082840312156111e457600080fd5b6111ef6101006120e6565b9050600082013567ffffffffffffffff81111561120b57600080fd5b61121784828501610f34565b600083015250602061122b8482850161134f565b602083015250604061123f8482850161134f565b60408301525060606112538482850161134f565b60608301525060806112678482850161134f565b60808301525060a061127b84828501610fa8565b60a08301525060c061128f84828501610e37565b60c08301525060e06112a384828501610fa8565b60e08301525092915050565b600060a082840312156112c157600080fd5b6112cb60a06120e6565b905060006112db84828501610e22565b60008301525060206112ef84828501610e22565b60208301525060406113038482850161134f565b604083015250606061131784828501610fa8565b606083015250608082013567ffffffffffffffff81111561133757600080fd5b61134384828501610e4c565b60808301525092915050565b60008135905061135e816124cb565b92915050565b600081519050611373816124cb565b92915050565b600081359050611388816124e2565b92915050565b6000602082840312156113a057600080fd5b60006113ae84828501610e22565b91505092915050565b600080600080600060a086880312156113cf57600080fd5b60006113dd88828901610e37565b95505060206113ee88828901610e22565b94505060406113ff88828901610e22565b935050606086013567ffffffffffffffff81111561141c57600080fd5b6114288882890161103b565b925050608061143988828901610e22565b9150509295509295909350565b60008060008060008060c0878903121561145f57600080fd5b600061146d89828a01610e37565b965050602061147e89828a01610e22565b955050604061148f89828a01610e22565b945050606087013567ffffffffffffffff8111156114ac57600080fd5b6114b889828a0161103b565b93505060806114c989828a01611026565b92505060a087013567ffffffffffffffff8111156114e657600080fd5b6114f289828a016110f3565b9150509295509295509295565b600080600080600080600080610100898b03121561151c57600080fd5b600061152a8b828c01610e37565b985050602061153b8b828c01610e22565b975050604061154c8b828c01610e22565b965050606061155d8b828c0161134f565b955050608061156e8b828c01610e37565b94505060a089013567ffffffffffffffff81111561158b57600080fd5b6115978b828c0161103b565b93505060c06115a88b828c01611026565b92505060e089013567ffffffffffffffff8111156115c557600080fd5b6115d18b828c016110f3565b9150509295985092959890939650565b600080600080608085870312156115f757600080fd5b600061160587828801610e22565b945050602061161687828801610e22565b935050604061162787828801610e22565b925050606085013567ffffffffffffffff81111561164457600080fd5b6116508782880161103b565b91505092959194509250565b60006020828403121561166e57600080fd5b600061167c84828501610fbd565b91505092915050565b60006020828403121561169757600080fd5b60006116a584828501611364565b91505092915050565b60006116ba8383611c10565b905092915050565b60006116ce8383611cfd565b905092915050565b60006116e28383611dad565b905092915050565b6116f3816122ff565b82525050565b611702816122ff565b82525050565b611711816122ed565b82525050565b611720816122ed565b82525050565b611737611732826122ed565b612402565b82525050565b600061174882612213565b611752818561227c565b935083602082028501611764856121e3565b8060005b858110156117a0578484038952815161178185826116ae565b945061178c83612255565b925060208a01995050600181019050611768565b50829750879550505050505092915050565b60006117bd8261221e565b6117c7818561228d565b9350836020820285016117d9856121f3565b8060005b8581101561181557848403895281516117f685826116c2565b945061180183612262565b925060208a019950506001810190506117dd565b50829750879550505050505092915050565b600061183282612229565b61183c818561229e565b93508360208202850161184e85612203565b8060005b8581101561188a578484038952815161186b85826116d6565b94506118768361226f565b925060208a01995050600181019050611852565b50829750879550505050505092915050565b6118a581612311565b82525050565b6118b481612311565b82525050565b6118cb6118c68261231d565b612414565b82525050565b6118da81612349565b82525050565b6118e981612349565b82525050565b6119006118fb82612349565b61241e565b82525050565b60006119118261223f565b61191b81856122c0565b935061192b8185602086016123cf565b6119348161243a565b840191505092915050565b600061194a82612234565b61195481856122af565b93506119648185602086016123cf565b61196d8161243a565b840191505092915050565b6119818161239c565b82525050565b60006119928261224a565b61199c81856122e2565b93506119ac8185602086016123cf565b80840191505092915050565b60006119c56031836122d1565b91507f55736572206164647265737320646f6573206e6f74206d61746368207377617060008301527f20726564697265637420616464726573730000000000000000000000000000006020830152604082019050919050565b6000611a2b602e836122d1565b91507f4f6e6c79207468652061646d696e20616464726573732063616e2063616c6c2060008301527f746869732066756e6374696f6e2e0000000000000000000000000000000000006020830152604082019050919050565b6000611a916038836122d1565b91507f546f6b656e2062616c616e636520646f6573206e6f74206d617463682073776160008301527f7020616d6f756e74207769746820636f6d6d697373696f6e00000000000000006020830152604082019050919050565b6000611af76028836122d1565b91507f546f6b656e2062616c616e636520646f6573206e6f74206d617463682073776160008301527f7020616d6f756e740000000000000000000000000000000000000000000000006020830152604082019050919050565b6000611b5d6015836122d1565b91507f537761707065722062616c616e636520656d70747900000000000000000000006000830152602082019050919050565b6000611b9d601f836122d1565b91507f496e636f727265637420736f7572636520746f6b656e20666f722073776170006000830152602082019050919050565b6000611bdd6013836122d1565b91507f4d757374206f6e6c7920626520312073776170000000000000000000000000006000830152602082019050919050565b6000604083016000830151611c2860008601826116ea565b5060208301518482036020860152611c40828261193f565b9150508091505092915050565b6000610100830160008301518482036000860152611c6b82826117b2565b9150506020830151611c8060208601826116ea565b506040830151611c936040860182611e23565b506060830151611ca660608601826118d1565b506080830151611cb96080860182611e23565b5060a0830151611ccc60a0860182611e41565b5060c0830151611cdf60c08601826118d1565b5060e0830151611cf260e08601826118d1565b508091505092915050565b6000610100830160008301518482036000860152611d1b8282611827565b9150506020830151611d306020860182611e23565b506040830151611d436040860182611e23565b506060830151611d566060860182611e23565b506080830151611d696080860182611e23565b5060a0830151611d7c60a086018261189c565b5060c0830151611d8f60c08601826116ea565b5060e0830151611da260e086018261189c565b508091505092915050565b600060a083016000830151611dc56000860182611708565b506020830151611dd86020860182611708565b506040830151611deb6040860182611e23565b506060830151611dfe606086018261189c565b5060808301518482036080860152611e16828261173d565b9150508091505092915050565b611e2c81612385565b82525050565b611e3b81612385565b82525050565b611e4a8161238f565b82525050565b6000611e5c8287611726565b601482019150611e6c8286611726565b601482019150611e7c8285611726565b601482019150611e8c8284611987565b915081905095945050505050565b6000611ea682876118ba565b600182019150611eb68286611726565b601482019150611ec682856118ef565b602082019150611ed682846118ef565b60208201915081905095945050505050565b6000602082019050611efd6000830184611717565b92915050565b6000602082019050611f1860008301846116f9565b92915050565b6000606082019050611f3360008301866116f9565b611f406020830185611717565b611f4d6040830184611e32565b949350505050565b6000604082019050611f6a6000830185611717565b611f776020830184611717565b9392505050565b6000602082019050611f9360008301846118ab565b92915050565b6000602082019050611fae60008301846118e0565b92915050565b60006020820190508181036000830152611fce8184611906565b905092915050565b6000604082019050611feb6000830185611978565b8181036020830152611ffd8184611c4d565b90509392505050565b6000602082019050818103600083015261201f816119b8565b9050919050565b6000602082019050818103600083015261203f81611a1e565b9050919050565b6000602082019050818103600083015261205f81611a84565b9050919050565b6000602082019050818103600083015261207f81611aea565b9050919050565b6000602082019050818103600083015261209f81611b50565b9050919050565b600060208201905081810360008301526120bf81611b90565b9050919050565b600060208201905081810360008301526120df81611bd0565b9050919050565b6000604051905081810181811067ffffffffffffffff8211171561210957600080fd5b8060405250919050565b600067ffffffffffffffff82111561212a57600080fd5b602082029050602081019050919050565b600067ffffffffffffffff82111561215257600080fd5b602082029050602081019050919050565b600067ffffffffffffffff82111561217a57600080fd5b602082029050602081019050919050565b600067ffffffffffffffff8211156121a257600080fd5b601f19601f8301169050602081019050919050565b600067ffffffffffffffff8211156121ce57600080fd5b601f19601f8301169050602081019050919050565b6000819050602082019050919050565b6000819050602082019050919050565b6000819050602082019050919050565b600081519050919050565b600081519050919050565b600081519050919050565b600081519050919050565b600081519050919050565b600081519050919050565b6000602082019050919050565b6000602082019050919050565b6000602082019050919050565b600082825260208201905092915050565b600082825260208201905092915050565b600082825260208201905092915050565b600082825260208201905092915050565b600082825260208201905092915050565b600082825260208201905092915050565b600081905092915050565b60006122f882612365565b9050919050565b600061230a82612365565b9050919050565b60008115159050919050565b60007fff0000000000000000000000000000000000000000000000000000000000000082169050919050565b6000819050919050565b600061235e826122ed565b9050919050565b600073ffffffffffffffffffffffffffffffffffffffff82169050919050565b6000819050919050565b600060ff82169050919050565b60006123a7826123ae565b9050919050565b60006123b982612365565b9050919050565b82818337600083830152505050565b60005b838110156123ed5780820151818401526020810190506123d2565b838111156123fc576000848401525b50505050565b600061240d82612428565b9050919050565b6000819050919050565b6000819050919050565b60006124338261244b565b9050919050565b6000601f19601f8301169050919050565b60008160601b9050919050565b612461816122ed565b811461246c57600080fd5b50565b612478816122ff565b811461248357600080fd5b50565b61248f81612311565b811461249a57600080fd5b50565b6124a681612349565b81146124b157600080fd5b50565b6124bd81612353565b81146124c857600080fd5b50565b6124d481612385565b81146124df57600080fd5b50565b6124eb8161238f565b81146124f657600080fd5b5056fea365627a7a723158204aa751285f24a934f8db85ae8380d3e66df14298fe99a75bc00cc55e92d5d6b06c6578706572696d656e74616cf564736f6c63430005100040",
  "source": "pragma solidity 0.5.16;\npragma experimental ABIEncoderV2;\n\nimport \"./lib/TotlePrimary.sol\";\nimport \"./Swapper.sol\";\n\ncontract SwapperFactory {\n  address public admin;\n  address public swapperLibrary;\n\n  event SwapPerformed(\n    address indexed user\n  );\n\n  modifier onlyAdmin() {\n    require(msg.sender == admin, 'Only the admin address can call this function.');\n    _;\n  }\n\n  constructor(address _swapperLibrary) public {\n    admin = msg.sender;\n    swapperLibrary = _swapperLibrary;\n  }\n\n  function performSwap(\n    address payable user,\n    address srcToken,\n    address dstToken,\n    string memory uniqueId,\n    TotlePrimary primary,\n    TotlePrimaryUtils.SwapCollection memory swapCollection\n  ) public onlyAdmin() {\n    performSwapWithCommission(user, srcToken, dstToken, 0, address(0), uniqueId, primary, swapCollection);\n  }\n\n  function performSwapWithCommission(\n    address payable user,\n    address srcToken,\n    address dstToken,\n    uint commissionAmount,\n    address payable commissionDestination,\n    string memory uniqueId,\n    TotlePrimary primary,\n    TotlePrimaryUtils.SwapCollection memory swapCollection\n  ) public onlyAdmin() {\n    require(swapCollection.swaps.length == 1, 'Must only be 1 swap');\n    require(swapCollection.swaps[0].trades[0].sourceToken == srcToken, 'Incorrect source token for swap');\n    require(swapCollection.swaps[0].redirectAddress == user, 'User address does not match swap redirect address');\n\n    Swapper swapper = createClone(user, srcToken, dstToken, uniqueId);\n\n    require(swapper.getBalance(srcToken) > 0, 'Swapper balance empty');\n    if (commissionAmount > 0) {\n      require(swapCollection.swaps[0].sourceAmount + commissionAmount == swapper.getBalance(srcToken), 'Token balance does not match swap amount with commission');\n      swapper.claim(commissionDestination, srcToken, commissionAmount);\n    } else {\n      require(swapCollection.swaps[0].sourceAmount == swapper.getBalance(srcToken), 'Token balance does not match swap amount');\n    }\n\n    if (srcToken != address(0)) {\n      address tokenTransferProxy = 0x74758AcFcE059f503a7E6B0fC2c8737600f9F2c4;\n      swapper.approve(srcToken, tokenTransferProxy);\n    }\n\n    swapper.swap(primary, swapCollection);\n    swapper.destroy(user);\n\n    emit SwapPerformed(user);\n  }\n\n  function claimBalance(\n    address payable user,\n    address srcToken,\n    address dstToken,\n    string memory uniqueId,\n    address token\n  ) public onlyAdmin() {\n    Swapper swapper = createClone(user, srcToken, dstToken, uniqueId);\n    swapper.claim(user, token, swapper.getBalance(token));\n    swapper.destroy(user);\n  }\n\n  function createClone(\n    address user,\n    address srcToken,\n    address dstToken,\n    string memory uniqueId\n  ) private onlyAdmin() returns (Swapper) {\n    bytes32 salt = computeCloneSalt(user, srcToken, dstToken, uniqueId);\n    bytes memory bytecode = getCloneBytecode();\n\n    address payable cloneAddress = computeAddress(salt);\n    if (!isContract(cloneAddress)) {\n      assembly {\n        cloneAddress := create2(0, add(bytecode, 0x20), mload(bytecode), salt)\n      }\n    }\n\n    return Swapper(cloneAddress);\n  }\n\n  function getCloneBytecode() public view returns (bytes memory) {\n    bytes20 targetBytes = bytes20(swapperLibrary);\n\n    bytes memory bytecode = new bytes(0x37);\n    assembly {\n      mstore(add(bytecode, 0x20), 0x3d602d80600a3d3981f3363d3d373d3d3d363d73000000000000000000000000)\n      mstore(add(bytecode, 0x34), targetBytes)\n      mstore(add(bytecode, 0x48), 0x5af43d82803e903d91602b57fd5bf30000000000000000000000000000000000)\n    }\n\n    return bytecode;\n  }\n\n  function isContract(address _address) public view returns (bool) {\n    uint32 size;\n    assembly {\n      size := extcodesize(_address)\n    }\n    return (size > 0);\n  }\n\n  function computeCloneSalt(address user, address srcToken, address dstToken, string memory uniqueId) public pure returns (bytes32) {\n    return keccak256(abi.encodePacked(user, srcToken, dstToken, uniqueId));\n  }\n\n  function computeAddress(bytes32 salt) public view returns (address payable) {\n    bytes32 data = keccak256(abi.encodePacked(bytes1(0xff), address(this), salt, keccak256(getCloneBytecode())));\n    return address(bytes20(data << 96));\n  }\n}\n",
  "sourcePath": "/home/passa/Documents/projects/Transak/transakWebAppBackend/lib/cryptoUtil/crypto-swapper/ethereum/contracts/SwapperFactory.sol",
  "compiler": {
    "name": "solc",
    "version": "0.5.16+commit.9c3226ce.Emscripten.clang"
  },
  "schemaVersion": "3.0.23",
  "updatedAt": "2020-05-01T15:25:07.677Z",
  "networkType": "ethereum",
  "devdoc": {
    "methods": {}
  },
  "userdoc": {
    "methods": {}
  }
}