{
  "contractName": "TotlePrimary",
  "abi": [
    {
      "constant": false,
      "inputs": [
        {
          "components": [
            {
              "components": [
                {
                  "components": [
                    {
                      "internalType": "address",
                      "name": "sourceToken",
                      "type": "address"
                    },
                    {
                      "internalType": "address",
                      "name": "destinationToken",
                      "type": "address"
                    },
                    {
                      "internalType": "uint256",
                      "name": "amount",
                      "type": "uint256"
                    },
                    {
                      "internalType": "bool",
                      "name": "isSourceAmount",
                      "type": "bool"
                    },
                    {
                      "components": [
                        {
                          "internalType": "address payable",
                          "name": "exchangeHandler",
                          "type": "address"
                        },
                        {
                          "internalType": "bytes",
                          "name": "encodedPayload",
                          "type": "bytes"
                        }
                      ],
                      "internalType": "struct TotlePrimaryUtils.Order[]",
                      "name": "orders",
                      "type": "tuple[]"
                    }
                  ],
                  "internalType": "struct TotlePrimaryUtils.Trade[]",
                  "name": "trades",
                  "type": "tuple[]"
                },
                {
                  "internalType": "uint256",
                  "name": "minimumExchangeRate",
                  "type": "uint256"
                },
                {
                  "internalType": "uint256",
                  "name": "minimumDestinationAmount",
                  "type": "uint256"
                },
                {
                  "internalType": "uint256",
                  "name": "sourceAmount",
                  "type": "uint256"
                },
                {
                  "internalType": "uint256",
                  "name": "tradeToTakeFeeFrom",
                  "type": "uint256"
                },
                {
                  "internalType": "bool",
                  "name": "takeFeeFromSource",
                  "type": "bool"
                },
                {
                  "internalType": "address payable",
                  "name": "redirectAddress",
                  "type": "address"
                },
                {
                  "internalType": "bool",
                  "name": "required",
                  "type": "bool"
                }
              ],
              "internalType": "struct TotlePrimaryUtils.Swap[]",
              "name": "swaps",
              "type": "tuple[]"
            },
            {
              "internalType": "address payable",
              "name": "partnerContract",
              "type": "address"
            },
            {
              "internalType": "uint256",
              "name": "expirationBlock",
              "type": "uint256"
            },
            {
              "internalType": "bytes32",
              "name": "id",
              "type": "bytes32"
            },
            {
              "internalType": "uint256",
              "name": "maxGasPrice",
              "type": "uint256"
            },
            {
              "internalType": "uint8",
              "name": "v",
              "type": "uint8"
            },
            {
              "internalType": "bytes32",
              "name": "r",
              "type": "bytes32"
            },
            {
              "internalType": "bytes32",
              "name": "s",
              "type": "bytes32"
            }
          ],
          "internalType": "struct TotlePrimaryUtils.SwapCollection",
          "name": "swaps",
          "type": "tuple"
        }
      ],
      "name": "performSwapCollection",
      "outputs": [],
      "payable": true,
      "stateMutability": "payable",
      "type": "function"
    }
  ],
  "bytecode": "0x608060405234801561001057600080fd5b5060d78061001f6000396000f3fe608060405260043610601c5760003560e01c80635f10dffc146021575b600080fd5b60376004803603603391908101906057565b6039565b005b50565b60006101008284031215604e57600080fd5b81905092915050565b600060208284031215606857600080fd5b600082013567ffffffffffffffff811115608157600080fd5b608b84828501603c565b9150509291505056fea365627a7a72315820b73df761a5c1296e35c1783f8e7ef0e49d315522124c3136a3d87d08e1ae8bc76c6578706572696d656e74616cf564736f6c63430005100040",
  "source": "pragma solidity 0.5.16;\npragma experimental ABIEncoderV2;\n\ncontract TotlePrimary {\n  function performSwapCollection(\n    TotlePrimaryUtils.SwapCollection calldata swaps\n  ) external payable {\n\n  }\n}\n\nlibrary TotlePrimaryUtils {\n  struct Order {\n    address payable exchangeHandler;\n    bytes encodedPayload;\n  }\n\n  struct Trade {\n    address sourceToken;\n    address destinationToken;\n    uint256 amount;\n    bool isSourceAmount; //true if amount is sourceToken, false if it's destinationToken\n    Order[] orders;\n  }\n\n  struct Swap {\n    Trade[] trades;\n    uint256 minimumExchangeRate;\n    uint256 minimumDestinationAmount;\n    uint256 sourceAmount;\n    uint256 tradeToTakeFeeFrom;\n    bool takeFeeFromSource; //Takes the fee before the trade if true, takes it after if false\n    address payable redirectAddress;\n    bool required;\n  }\n\n  struct SwapCollection {\n    Swap[] swaps;\n    address payable partnerContract;\n    uint256 expirationBlock;\n    bytes32 id;\n    uint256 maxGasPrice;\n    uint8 v;\n    bytes32 r;\n    bytes32 s;\n  }\n}\n",
  "sourcePath": "/home/passa/Documents/projects/Transak/transakWebAppBackend/lib/cryptoUtil/crypto-swapper/ethereum/contracts/lib/TotlePrimary.sol",
  "compiler": {
    "name": "solc",
    "version": "0.5.16+commit.9c3226ce.Emscripten.clang"
  },
  "schemaVersion": "3.0.23",
  "updatedAt": "2020-05-01T15:25:51.339Z",
  "networkType": "ethereum",
  "devdoc": {
    "methods": {}
  },
  "userdoc": {
    "methods": {}
  }
}